{
  "contractName": "AircoinsMetaverse",
  "abi": [
    {
      "inputs": [
        {
          "internalType": "string",
          "name": "baseURI",
          "type": "string"
        }
      ],
      "stateMutability": "nonpayable",
      "type": "constructor"
    },
    {
      "anonymous": false,
      "inputs": [
        {
          "indexed": true,
          "internalType": "address",
          "name": "owner",
          "type": "address"
        },
        {
          "indexed": true,
          "internalType": "address",
          "name": "approved",
          "type": "address"
        },
        {
          "indexed": true,
          "internalType": "uint256",
          "name": "tokenId",
          "type": "uint256"
        }
      ],
      "name": "Approval",
      "type": "event"
    },
    {
      "anonymous": false,
      "inputs": [
        {
          "indexed": true,
          "internalType": "address",
          "name": "owner",
          "type": "address"
        },
        {
          "indexed": true,
          "internalType": "address",
          "name": "operator",
          "type": "address"
        },
        {
          "indexed": false,
          "internalType": "bool",
          "name": "approved",
          "type": "bool"
        }
      ],
      "name": "ApprovalForAll",
      "type": "event"
    },
    {
      "anonymous": false,
      "inputs": [
        {
          "indexed": true,
          "internalType": "uint256",
          "name": "id",
          "type": "uint256"
        }
      ],
      "name": "CreateAircoinsMetaverse",
      "type": "event"
    },
    {
      "anonymous": false,
      "inputs": [
        {
          "indexed": true,
          "internalType": "address",
          "name": "previousOwner",
          "type": "address"
        },
        {
          "indexed": true,
          "internalType": "address",
          "name": "newOwner",
          "type": "address"
        }
      ],
      "name": "OwnershipTransferred",
      "type": "event"
    },
    {
      "anonymous": false,
      "inputs": [
        {
          "indexed": false,
          "internalType": "address",
          "name": "account",
          "type": "address"
        }
      ],
      "name": "Paused",
      "type": "event"
    },
    {
      "anonymous": false,
      "inputs": [
        {
          "indexed": true,
          "internalType": "address",
          "name": "from",
          "type": "address"
        },
        {
          "indexed": true,
          "internalType": "address",
          "name": "to",
          "type": "address"
        },
        {
          "indexed": true,
          "internalType": "uint256",
          "name": "tokenId",
          "type": "uint256"
        }
      ],
      "name": "Transfer",
      "type": "event"
    },
    {
      "anonymous": false,
      "inputs": [
        {
          "indexed": false,
          "internalType": "address",
          "name": "account",
          "type": "address"
        }
      ],
      "name": "Unpaused",
      "type": "event"
    },
    {
      "inputs": [],
      "name": "MAX_BY_MINT",
      "outputs": [
        {
          "internalType": "uint256",
          "name": "",
          "type": "uint256"
        }
      ],
      "stateMutability": "view",
      "type": "function",
      "constant": true
    },
    {
      "inputs": [],
      "name": "MAX_ELEMENTS",
      "outputs": [
        {
          "internalType": "uint256",
          "name": "",
          "type": "uint256"
        }
      ],
      "stateMutability": "view",
      "type": "function",
      "constant": true
    },
    {
      "inputs": [],
      "name": "MAX_PER_ADDRESS",
      "outputs": [
        {
          "internalType": "uint256",
          "name": "",
          "type": "uint256"
        }
      ],
      "stateMutability": "view",
      "type": "function",
      "constant": true
    },
    {
      "inputs": [],
      "name": "PRICE",
      "outputs": [
        {
          "internalType": "uint256",
          "name": "",
          "type": "uint256"
        }
      ],
      "stateMutability": "view",
      "type": "function",
      "constant": true
    },
    {
      "inputs": [
        {
          "internalType": "address",
          "name": "to",
          "type": "address"
        },
        {
          "internalType": "uint256",
          "name": "tokenId",
          "type": "uint256"
        }
      ],
      "name": "approve",
      "outputs": [],
      "stateMutability": "nonpayable",
      "type": "function"
    },
    {
      "inputs": [
        {
          "internalType": "address",
          "name": "owner",
          "type": "address"
        }
      ],
      "name": "balanceOf",
      "outputs": [
        {
          "internalType": "uint256",
          "name": "",
          "type": "uint256"
        }
      ],
      "stateMutability": "view",
      "type": "function",
      "constant": true
    },
    {
      "inputs": [],
      "name": "baseTokenURI",
      "outputs": [
        {
          "internalType": "string",
          "name": "",
          "type": "string"
        }
      ],
      "stateMutability": "view",
      "type": "function",
      "constant": true
    },
    {
      "inputs": [
        {
          "internalType": "uint256",
          "name": "tokenId",
          "type": "uint256"
        }
      ],
      "name": "burn",
      "outputs": [],
      "stateMutability": "nonpayable",
      "type": "function"
    },
    {
      "inputs": [],
      "name": "devAddress",
      "outputs": [
        {
          "internalType": "address",
          "name": "",
          "type": "address"
        }
      ],
      "stateMutability": "view",
      "type": "function",
      "constant": true
    },
    {
      "inputs": [
        {
          "internalType": "uint256",
          "name": "tokenId",
          "type": "uint256"
        }
      ],
      "name": "getApproved",
      "outputs": [
        {
          "internalType": "address",
          "name": "",
          "type": "address"
        }
      ],
      "stateMutability": "view",
      "type": "function",
      "constant": true
    },
    {
      "inputs": [
        {
          "internalType": "address",
          "name": "owner",
          "type": "address"
        },
        {
          "internalType": "address",
          "name": "operator",
          "type": "address"
        }
      ],
      "name": "isApprovedForAll",
      "outputs": [
        {
          "internalType": "bool",
          "name": "",
          "type": "bool"
        }
      ],
      "stateMutability": "view",
      "type": "function",
      "constant": true
    },
    {
      "inputs": [],
      "name": "name",
      "outputs": [
        {
          "internalType": "string",
          "name": "",
          "type": "string"
        }
      ],
      "stateMutability": "view",
      "type": "function",
      "constant": true
    },
    {
      "inputs": [],
      "name": "owner",
      "outputs": [
        {
          "internalType": "address",
          "name": "",
          "type": "address"
        }
      ],
      "stateMutability": "view",
      "type": "function",
      "constant": true
    },
    {
      "inputs": [
        {
          "internalType": "uint256",
          "name": "tokenId",
          "type": "uint256"
        }
      ],
      "name": "ownerOf",
      "outputs": [
        {
          "internalType": "address",
          "name": "",
          "type": "address"
        }
      ],
      "stateMutability": "view",
      "type": "function",
      "constant": true
    },
    {
      "inputs": [],
      "name": "paused",
      "outputs": [
        {
          "internalType": "bool",
          "name": "",
          "type": "bool"
        }
      ],
      "stateMutability": "view",
      "type": "function",
      "constant": true
    },
    {
      "inputs": [],
      "name": "renounceOwnership",
      "outputs": [],
      "stateMutability": "nonpayable",
      "type": "function"
    },
    {
      "inputs": [],
      "name": "reveal_timestamp",
      "outputs": [
        {
          "internalType": "uint256",
          "name": "",
          "type": "uint256"
        }
      ],
      "stateMutability": "view",
      "type": "function",
      "constant": true
    },
    {
      "inputs": [
        {
          "internalType": "address",
          "name": "from",
          "type": "address"
        },
        {
          "internalType": "address",
          "name": "to",
          "type": "address"
        },
        {
          "internalType": "uint256",
          "name": "tokenId",
          "type": "uint256"
        }
      ],
      "name": "safeTransferFrom",
      "outputs": [],
      "stateMutability": "nonpayable",
      "type": "function"
    },
    {
      "inputs": [
        {
          "internalType": "address",
          "name": "from",
          "type": "address"
        },
        {
          "internalType": "address",
          "name": "to",
          "type": "address"
        },
        {
          "internalType": "uint256",
          "name": "tokenId",
          "type": "uint256"
        },
        {
          "internalType": "bytes",
          "name": "_data",
          "type": "bytes"
        }
      ],
      "name": "safeTransferFrom",
      "outputs": [],
      "stateMutability": "nonpayable",
      "type": "function"
    },
    {
      "inputs": [
        {
          "internalType": "address",
          "name": "operator",
          "type": "address"
        },
        {
          "internalType": "bool",
          "name": "approved",
          "type": "bool"
        }
      ],
      "name": "setApprovalForAll",
      "outputs": [],
      "stateMutability": "nonpayable",
      "type": "function"
    },
    {
      "inputs": [],
      "name": "symbol",
      "outputs": [
        {
          "internalType": "string",
          "name": "",
          "type": "string"
        }
      ],
      "stateMutability": "view",
      "type": "function",
      "constant": true
    },
    {
      "inputs": [
        {
          "internalType": "uint256",
          "name": "index",
          "type": "uint256"
        }
      ],
      "name": "tokenByIndex",
      "outputs": [
        {
          "internalType": "uint256",
          "name": "",
          "type": "uint256"
        }
      ],
      "stateMutability": "view",
      "type": "function",
      "constant": true
    },
    {
      "inputs": [
        {
          "internalType": "address",
          "name": "owner",
          "type": "address"
        },
        {
          "internalType": "uint256",
          "name": "index",
          "type": "uint256"
        }
      ],
      "name": "tokenOfOwnerByIndex",
      "outputs": [
        {
          "internalType": "uint256",
          "name": "",
          "type": "uint256"
        }
      ],
      "stateMutability": "view",
      "type": "function",
      "constant": true
    },
    {
      "inputs": [
        {
          "internalType": "uint256",
          "name": "tokenId",
          "type": "uint256"
        }
      ],
      "name": "tokenURI",
      "outputs": [
        {
          "internalType": "string",
          "name": "",
          "type": "string"
        }
      ],
      "stateMutability": "view",
      "type": "function",
      "constant": true
    },
    {
      "inputs": [],
      "name": "totalSupply",
      "outputs": [
        {
          "internalType": "uint256",
          "name": "",
          "type": "uint256"
        }
      ],
      "stateMutability": "view",
      "type": "function",
      "constant": true
    },
    {
      "inputs": [
        {
          "internalType": "address",
          "name": "from",
          "type": "address"
        },
        {
          "internalType": "address",
          "name": "to",
          "type": "address"
        },
        {
          "internalType": "uint256",
          "name": "tokenId",
          "type": "uint256"
        }
      ],
      "name": "transferFrom",
      "outputs": [],
      "stateMutability": "nonpayable",
      "type": "function"
    },
    {
      "inputs": [
        {
          "internalType": "address",
          "name": "newOwner",
          "type": "address"
        }
      ],
      "name": "transferOwnership",
      "outputs": [],
      "stateMutability": "nonpayable",
      "type": "function"
    },
    {
      "inputs": [],
      "name": "totalMint",
      "outputs": [
        {
          "internalType": "uint256",
          "name": "",
          "type": "uint256"
        }
      ],
      "stateMutability": "view",
      "type": "function",
      "constant": true
    },
    {
      "inputs": [
        {
          "internalType": "address",
          "name": "_to",
          "type": "address"
        },
        {
          "internalType": "uint256",
          "name": "_count",
          "type": "uint256"
        }
      ],
      "name": "mint",
      "outputs": [],
      "stateMutability": "payable",
      "type": "function",
      "payable": true
    },
    {
      "inputs": [
        {
          "internalType": "address",
          "name": "_to",
          "type": "address"
        }
      ],
      "name": "presaleMint",
      "outputs": [],
      "stateMutability": "payable",
      "type": "function",
      "payable": true
    },
    {
      "inputs": [
        {
          "internalType": "uint256",
          "name": "_count",
          "type": "uint256"
        }
      ],
      "name": "price",
      "outputs": [
        {
          "internalType": "uint256",
          "name": "",
          "type": "uint256"
        }
      ],
      "stateMutability": "pure",
      "type": "function",
      "constant": true
    },
    {
      "inputs": [
        {
          "internalType": "string",
          "name": "baseURI",
          "type": "string"
        }
      ],
      "name": "setBaseURI",
      "outputs": [],
      "stateMutability": "nonpayable",
      "type": "function"
    },
    {
      "inputs": [
        {
          "internalType": "uint256",
          "name": "_count",
          "type": "uint256"
        }
      ],
      "name": "setMaxElements",
      "outputs": [],
      "stateMutability": "nonpayable",
      "type": "function"
    },
    {
      "inputs": [
        {
          "internalType": "address",
          "name": "_owner",
          "type": "address"
        }
      ],
      "name": "walletOfOwner",
      "outputs": [
        {
          "internalType": "uint256[]",
          "name": "",
          "type": "uint256[]"
        }
      ],
      "stateMutability": "view",
      "type": "function",
      "constant": true
    },
    {
      "inputs": [
        {
          "internalType": "bool",
          "name": "val",
          "type": "bool"
        }
      ],
      "name": "pause",
      "outputs": [],
      "stateMutability": "nonpayable",
      "type": "function"
    },
    {
      "inputs": [],
      "name": "withdrawAll",
      "outputs": [],
      "stateMutability": "payable",
      "type": "function",
      "payable": true
    },
    {
      "inputs": [
        {
          "internalType": "bytes4",
          "name": "interfaceId",
          "type": "bytes4"
        }
      ],
      "name": "supportsInterface",
      "outputs": [
        {
          "internalType": "bool",
          "name": "",
          "type": "bool"
        }
      ],
      "stateMutability": "view",
      "type": "function",
      "constant": true
    },
    {
      "inputs": [
        {
          "internalType": "address",
          "name": "new_dev_addr",
          "type": "address"
        }
      ],
      "name": "setDevAddr",
      "outputs": [],
      "stateMutability": "nonpayable",
      "type": "function"
    }
  ],
  "bytecode": "0x60806040526104b0600c553480156200001757600080fd5b5060405162002fe438038062002fe48339810160408190526200003a91620003d4565b6040805180820182526012815271416972636f696e73204d657461766572736560701b60208083019182528351808501909452600484526308292a4f60e31b90840152815191929162000090916000916200032e565b508051620000a69060019060208401906200032e565b505050620000c3620000bd6200010060201b60201c565b62000104565b600a805460ff60a01b19169055600d80546001600160a01b03191633179055620000ed8162000156565b620000f96001620001be565b50620005a0565b3390565b600a80546001600160a01b038381166001600160a01b0319831681179093556040519116919082907f8be0079c531659141344cd1fd0a4f28419497f9722a3daafe3b4186f6b6457e090600090a35050565b6200016062000100565b6001600160a01b0316620001736200022d565b6001600160a01b031614620001a55760405162461bcd60e51b81526004016200019c9062000518565b60405180910390fd5b8051620001ba90600e9060208401906200032e565b5050565b620001c862000100565b6001600160a01b0316620001db6200022d565b6001600160a01b031614620002045760405162461bcd60e51b81526004016200019c9062000518565b6001811515141562000220576200021a6200023c565b6200022a565b6200022a620002bd565b50565b600a546001600160a01b031690565b620002466200031e565b15620002665760405162461bcd60e51b81526004016200019c90620004ee565b600a805460ff60a01b1916600160a01b1790557f62e78cea01bee320cd4e420270b5ea74000d11b0c9f74754ebdbfc544b05a258620002a462000100565b604051620002b39190620004a3565b60405180910390a1565b620002c76200031e565b620002e65760405162461bcd60e51b81526004016200019c90620004b7565b600a805460ff60a01b191690557f5db9ee0a495bf2e6ff9c91a7834c1ba4fdd244a5e8aa4e537bd38aeae4b073aa620002a462000100565b600a54600160a01b900460ff1690565b8280546200033c906200054d565b90600052602060002090601f016020900481019282620003605760008555620003ab565b82601f106200037b57805160ff1916838001178555620003ab565b82800160010185558215620003ab579182015b82811115620003ab5782518255916020019190600101906200038e565b50620003b9929150620003bd565b5090565b5b80821115620003b95760008155600101620003be565b60006020808385031215620003e7578182fd5b82516001600160401b0380821115620003fe578384fd5b818501915085601f83011262000412578384fd5b8151818111156200042757620004276200058a565b604051601f8201601f19168101850183811182821017156200044d576200044d6200058a565b604052818152838201850188101562000464578586fd5b8592505b8183101562000487578383018501518184018601529184019162000468565b818311156200049857858583830101525b979650505050505050565b6001600160a01b0391909116815260200190565b60208082526014908201527f5061757361626c653a206e6f7420706175736564000000000000000000000000604082015260600190565b60208082526010908201526f14185d5cd8589b194e881c185d5cd95960821b604082015260600190565b6020808252818101527f4f776e61626c653a2063616c6c6572206973206e6f7420746865206f776e6572604082015260600190565b6002810460018216806200056257607f821691505b602082108114156200058457634e487b7160e01b600052602260045260246000fd5b50919050565b634e487b7160e01b600052604160045260246000fd5b612a3480620005b06000396000f3fe6080604052600436106102255760003560e01c806359a7715a116101235780638d859f3e116100ab578063c87b56dd1161006f578063c87b56dd146105cb578063d547cfb7146105eb578063e3e1047a14610600578063e985e9c514610615578063f2fde38b1461063557610225565b80638d859f3e1461054c5780638da5cb5b1461056157806395d89b4114610576578063a22cb4651461058b578063b88d4fde146105ab57610225565b806370a08231116100f257806370a08231146104ef578063715018a61461050f57806371f9f20014610524578063853828b6146105445780638ad5de281461030457610225565b806359a7715a146104855780635c975abb1461049a5780636352211e146104af5780636ebb64a2146104cf57610225565b806326a49e37116101b157806342842e0e1161017557806342842e0e146103d857806342966c68146103f8578063438b6300146104185780634f6ccce71461044557806355f804b31461046557610225565b806326a49e371461035b5780632f745c591461037b5780633502a7161461039b5780633ad10ef6146103b057806340c10f19146103c557610225565b8063081812fc116101f8578063081812fc146102b7578063095ea7b3146102e45780630aaef2851461030457806318160ddd1461032657806323b872dd1461033b57610225565b806301ffc9a71461022a57806302329a291461026057806306fdde03146102825780630779834a146102a4575b600080fd5b34801561023657600080fd5b5061024a610245366004611fef565b610655565b6040516102579190612178565b60405180910390f35b34801561026c57600080fd5b5061028061027b366004611fd5565b610668565b005b34801561028e57600080fd5b506102976106d3565b6040516102579190612183565b6102806102b2366004611e83565b610765565b3480156102c357600080fd5b506102d76102d236600461206d565b6107ad565b60405161025791906120e3565b3480156102f057600080fd5b506102806102ff366004611fac565b6107f0565b34801561031057600080fd5b50610319610888565b60405161025791906128a5565b34801561033257600080fd5b5061031961088d565b34801561034757600080fd5b50610280610356366004611ecf565b610893565b34801561036757600080fd5b5061031961037636600461206d565b6108cb565b34801561038757600080fd5b50610319610396366004611fac565b6108df565b3480156103a757600080fd5b50610319610931565b3480156103bc57600080fd5b506102d7610937565b6102806103d3366004611fac565b610946565b3480156103e457600080fd5b506102806103f3366004611ecf565b610abd565b34801561040457600080fd5b5061028061041336600461206d565b610ad8565b34801561042457600080fd5b50610438610433366004611e83565b610b08565b6040516102579190612134565b34801561045157600080fd5b5061031961046036600461206d565b610bc6565b34801561047157600080fd5b50610280610480366004612027565b610c21565b34801561049157600080fd5b50610319610c77565b3480156104a657600080fd5b5061024a610c86565b3480156104bb57600080fd5b506102d76104ca36600461206d565b610c96565b3480156104db57600080fd5b506102806104ea366004611e83565b610ccb565b3480156104fb57600080fd5b5061031961050a366004611e83565b610d52565b34801561051b57600080fd5b50610280610d96565b34801561053057600080fd5b5061028061053f36600461206d565b610de1565b610280610e25565b34801561055857600080fd5b50610319610e85565b34801561056d57600080fd5b506102d7610e91565b34801561058257600080fd5b50610297610ea0565b34801561059757600080fd5b506102806105a6366004611f83565b610eaf565b3480156105b757600080fd5b506102806105c6366004611f0a565b610f7d565b3480156105d757600080fd5b506102976105e636600461206d565b610fb6565b3480156105f757600080fd5b50610297611039565b34801561060c57600080fd5b506103196110c7565b34801561062157600080fd5b5061024a610630366004611e9d565b6110d1565b34801561064157600080fd5b50610280610650366004611e83565b6110ff565b60006106608261116d565b90505b919050565b610670611192565b6001600160a01b0316610681610e91565b6001600160a01b0316146106b05760405162461bcd60e51b81526004016106a790612655565b60405180910390fd5b600181151514156106c8576106c3611196565b6106d0565b6106d061120e565b50565b6060600080546106e29061293c565b80601f016020809104026020016040519081016040528092919081815260200182805461070e9061293c565b801561075b5780601f106107305761010080835404028352916020019161075b565b820191906000526020600020905b81548152906001019060200180831161073e57829003601f168201915b5050505050905090565b61076d611192565b6001600160a01b031661077e610e91565b6001600160a01b0316146107a45760405162461bcd60e51b81526004016106a790612655565b6106d081611268565b60006107b8826112b7565b6107d45760405162461bcd60e51b81526004016106a790612609565b506000908152600460205260409020546001600160a01b031690565b60006107fb82610c96565b9050806001600160a01b0316836001600160a01b0316141561082f5760405162461bcd60e51b81526004016106a79061274d565b806001600160a01b0316610841611192565b6001600160a01b0316148061085d575061085d81610630611192565b6108795760405162461bcd60e51b81526004016106a7906124c2565b61088383836112d4565b505050565b600a81565b60085490565b6108a461089e611192565b82611342565b6108c05760405162461bcd60e51b81526004016106a7906127b8565b6108838383836113c7565b600061066067016345785d8a0000836114f4565b60006108ea83610d52565b82106109085760405162461bcd60e51b81526004016106a790612260565b506001600160a01b03919091166000908152600660209081526040808320938352929052205490565b600c5481565b600d546001600160a01b031681565b600c54610951611500565b111561096f5760405162461bcd60e51b81526004016106a7906125e7565b610977610e91565b6001600160a01b0316610988611192565b6001600160a01b0316146109bb5761099e610c86565b156109bb5760405162461bcd60e51b81526004016106a790612498565b60006109c5611500565b9050600c548111156109e95760405162461bcd60e51b81526004016106a7906125e7565b600c546109f683836128ae565b1115610a145760405162461bcd60e51b81526004016106a7906122fd565b600a821115610a355760405162461bcd60e51b81526004016106a790612238565b600a82610a4185610d52565b610a4b91906128ae565b1115610a695760405162461bcd60e51b81526004016106a7906123a8565b610a72826108cb565b341015610a915760405162461bcd60e51b81526004016106a790612722565b60005b82811015610ab757610aa584611268565b80610aaf81612977565b915050610a94565b50505050565b61088383838360405180602001604052806000815250610f7d565b610ae361089e611192565b610aff5760405162461bcd60e51b81526004016106a790612855565b6106d08161150c565b60606000610b1583610d52565b905060008167ffffffffffffffff811115610b4057634e487b7160e01b600052604160045260246000fd5b604051908082528060200260200182016040528015610b69578160200160208202803683370190505b50905060005b82811015610bbe57610b8185826108df565b828281518110610ba157634e487b7160e01b600052603260045260246000fd5b602090810291909101015280610bb681612977565b915050610b6f565b509392505050565b6000610bd061088d565b8210610bee5760405162461bcd60e51b81526004016106a790612809565b60088281548110610c0f57634e487b7160e01b600052603260045260246000fd5b90600052602060002001549050919050565b610c29611192565b6001600160a01b0316610c3a610e91565b6001600160a01b031614610c605760405162461bcd60e51b81526004016106a790612655565b8051610c7390600e906020840190611d53565b5050565b6000610c81611500565b905090565b600a54600160a01b900460ff1690565b6000818152600260205260408120546001600160a01b0316806106605760405162461bcd60e51b81526004016106a790612569565b610cd3611192565b6001600160a01b0316610ce4610e91565b6001600160a01b031614610d0a5760405162461bcd60e51b81526004016106a790612655565b6001600160a01b038116610d305760405162461bcd60e51b81526004016106a79061220f565b600d80546001600160a01b0319166001600160a01b0392909216919091179055565b60006001600160a01b038216610d7a5760405162461bcd60e51b81526004016106a79061251f565b506001600160a01b031660009081526003602052604090205490565b610d9e611192565b6001600160a01b0316610daf610e91565b6001600160a01b031614610dd55760405162461bcd60e51b81526004016106a790612655565b610ddf60006115b3565b565b610de9611192565b6001600160a01b0316610dfa610e91565b6001600160a01b031614610e205760405162461bcd60e51b81526004016106a790612655565b600c55565b610e2d611192565b6001600160a01b0316610e3e610e91565b6001600160a01b031614610e645760405162461bcd60e51b81526004016106a790612655565b4780610e6f57600080fd5b600d546106d0906001600160a01b031682611605565b67016345785d8a000081565b600a546001600160a01b031690565b6060600180546106e29061293c565b610eb7611192565b6001600160a01b0316826001600160a01b03161415610ee85760405162461bcd60e51b81526004016106a790612415565b8060056000610ef5611192565b6001600160a01b03908116825260208083019390935260409182016000908120918716808252919093529120805460ff191692151592909217909155610f39611192565b6001600160a01b03167f17307eab39ab6107e8899845ad3d59bd9653f200f220920489ca2b5937696c3183604051610f719190612178565b60405180910390a35050565b610f8e610f88611192565b83611342565b610faa5760405162461bcd60e51b81526004016106a7906127b8565b610ab784848484611681565b6060610fc1826112b7565b610fdd5760405162461bcd60e51b81526004016106a7906126d3565b6000610fe76116b4565b905060008151116110075760405180602001604052806000815250611032565b80611011846116c3565b6040516020016110229291906120b1565b6040516020818303038152906040525b9392505050565b600e80546110469061293c565b80601f01602080910402602001604051908101604052809291908181526020018280546110729061293c565b80156110bf5780601f10611094576101008083540402835291602001916110bf565b820191906000526020600020905b8154815290600101906020018083116110a257829003601f168201915b505050505081565b65017caae0510081565b6001600160a01b03918216600090815260056020908152604080832093909416825291909152205460ff1690565b611107611192565b6001600160a01b0316611118610e91565b6001600160a01b03161461113e5760405162461bcd60e51b81526004016106a790612655565b6001600160a01b0381166111645760405162461bcd60e51b81526004016106a79061232b565b6106d0816115b3565b60006001600160e01b0319821663780e9d6360e01b14806106605750610660826117de565b3390565b61119e610c86565b156111bb5760405162461bcd60e51b81526004016106a790612498565b600a805460ff60a01b1916600160a01b1790557f62e78cea01bee320cd4e420270b5ea74000d11b0c9f74754ebdbfc544b05a2586111f7611192565b60405161120491906120e3565b60405180910390a1565b611216610c86565b6112325760405162461bcd60e51b81526004016106a7906121e1565b600a805460ff60a01b191690557f5db9ee0a495bf2e6ff9c91a7834c1ba4fdd244a5e8aa4e537bd38aeae4b073aa6111f7611192565b6000611272611500565b905061127e600b61181e565b6112888282611827565b60405181907f5890b0e34bdcb1b199e70e76721be5794c6a5571e2c52541b9badcc2aabc288790600090a25050565b6000908152600260205260409020546001600160a01b0316151590565b600081815260046020526040902080546001600160a01b0319166001600160a01b038416908117909155819061130982610c96565b6001600160a01b03167f8c5be1e5ebec7d5bd14f71427d1e84f3dd0314c0f7b2291e5b200ac8c7c3b92560405160405180910390a45050565b600061134d826112b7565b6113695760405162461bcd60e51b81526004016106a79061244c565b600061137483610c96565b9050806001600160a01b0316846001600160a01b031614806113af5750836001600160a01b03166113a4846107ad565b6001600160a01b0316145b806113bf57506113bf81856110d1565b949350505050565b826001600160a01b03166113da82610c96565b6001600160a01b0316146114005760405162461bcd60e51b81526004016106a79061268a565b6001600160a01b0382166114265760405162461bcd60e51b81526004016106a7906123d1565b611431838383611841565b61143c6000826112d4565b6001600160a01b03831660009081526003602052604081208054600192906114659084906128f9565b90915550506001600160a01b03821660009081526003602052604081208054600192906114939084906128ae565b909155505060008181526002602052604080822080546001600160a01b0319166001600160a01b0386811691821790925591518493918716917fddf252ad1be2c89b69c2b068fc378daa952ba7f163c4a11628f55a4df523b3ef91a4505050565b600061103282846128da565b6000610c81600b61184c565b600061151782610c96565b905061152581600084611841565b6115306000836112d4565b6001600160a01b03811660009081526003602052604081208054600192906115599084906128f9565b909155505060008281526002602052604080822080546001600160a01b0319169055518391906001600160a01b038416907fddf252ad1be2c89b69c2b068fc378daa952ba7f163c4a11628f55a4df523b3ef908390a45050565b600a80546001600160a01b038381166001600160a01b0319831681179093556040519116919082907f8be0079c531659141344cd1fd0a4f28419497f9722a3daafe3b4186f6b6457e090600090a35050565b6000826001600160a01b03168260405161161e906120e0565b60006040518083038185875af1925050503d806000811461165b576040519150601f19603f3d011682016040523d82523d6000602084013e611660565b606091505b50509050806108835760405162461bcd60e51b81526004016106a79061278e565b61168c8484846113c7565b61169884848484611850565b610ab75760405162461bcd60e51b81526004016106a7906122ab565b6060600e80546106e29061293c565b6060816116e857506040805180820190915260018152600360fc1b6020820152610663565b8160005b811561171257806116fc81612977565b915061170b9050600a836128c6565b91506116ec565b60008167ffffffffffffffff81111561173b57634e487b7160e01b600052604160045260246000fd5b6040519080825280601f01601f191660200182016040528015611765576020820181803683370190505b5090505b84156113bf5761177a6001836128f9565b9150611787600a86612992565b6117929060306128ae565b60f81b8183815181106117b557634e487b7160e01b600052603260045260246000fd5b60200101906001600160f81b031916908160001a9053506117d7600a866128c6565b9450611769565b60006001600160e01b031982166380ac58cd60e01b148061180f57506001600160e01b03198216635b5e139f60e01b145b8061066057506106608261196b565b80546001019055565b610c73828260405180602001604052806000815250611984565b6108838383836119b7565b5490565b6000611864846001600160a01b03166119e7565b1561196057836001600160a01b031663150b7a02611880611192565b8786866040518563ffffffff1660e01b81526004016118a294939291906120f7565b602060405180830381600087803b1580156118bc57600080fd5b505af19250505080156118ec575060408051601f3d908101601f191682019092526118e99181019061200b565b60015b611946573d80801561191a576040519150601f19603f3d011682016040523d82523d6000602084013e61191f565b606091505b50805161193e5760405162461bcd60e51b81526004016106a7906122ab565b805181602001fd5b6001600160e01b031916630a85bd0160e11b1490506113bf565b506001949350505050565b6001600160e01b031981166301ffc9a760e01b14919050565b61198e83836119ed565b61199b6000848484611850565b6108835760405162461bcd60e51b81526004016106a7906122ab565b6119c2838383611acc565b6119ca610c86565b156108835760405162461bcd60e51b81526004016106a790612196565b3b151590565b6001600160a01b038216611a135760405162461bcd60e51b81526004016106a7906125b2565b611a1c816112b7565b15611a395760405162461bcd60e51b81526004016106a790612371565b611a4560008383611841565b6001600160a01b0382166000908152600360205260408120805460019290611a6e9084906128ae565b909155505060008181526002602052604080822080546001600160a01b0319166001600160a01b03861690811790915590518392907fddf252ad1be2c89b69c2b068fc378daa952ba7f163c4a11628f55a4df523b3ef908290a45050565b611ad7838383610883565b6001600160a01b038316611af357611aee81611b55565b611b16565b816001600160a01b0316836001600160a01b031614611b1657611b168382611b99565b6001600160a01b038216611b3257611b2d81611c36565b610883565b826001600160a01b0316826001600160a01b031614610883576108838282611d0f565b600880546000838152600960205260408120829055600182018355919091527ff3f7a9fe364faab93b216da50a3214154f22a0a2b415b23a84c8169e8b636ee30155565b60006001611ba684610d52565b611bb091906128f9565b600083815260076020526040902054909150808214611c03576001600160a01b03841660009081526006602090815260408083208584528252808320548484528184208190558352600790915290208190555b5060009182526007602090815260408084208490556001600160a01b039094168352600681528383209183525290812055565b600854600090611c48906001906128f9565b60008381526009602052604081205460088054939450909284908110611c7e57634e487b7160e01b600052603260045260246000fd5b906000526020600020015490508060088381548110611cad57634e487b7160e01b600052603260045260246000fd5b6000918252602080832090910192909255828152600990915260408082208490558582528120556008805480611cf357634e487b7160e01b600052603160045260246000fd5b6001900381819060005260206000200160009055905550505050565b6000611d1a83610d52565b6001600160a01b039093166000908152600660209081526040808320868452825280832085905593825260079052919091209190915550565b828054611d5f9061293c565b90600052602060002090601f016020900481019282611d815760008555611dc7565b82601f10611d9a57805160ff1916838001178555611dc7565b82800160010185558215611dc7579182015b82811115611dc7578251825591602001919060010190611dac565b50611dd3929150611dd7565b5090565b5b80821115611dd35760008155600101611dd8565b600067ffffffffffffffff80841115611e0757611e076129d2565b604051601f8501601f191681016020018281118282101715611e2b57611e2b6129d2565b604052848152915081838501861015611e4357600080fd5b8484602083013760006020868301015250509392505050565b80356001600160a01b038116811461066357600080fd5b8035801515811461066357600080fd5b600060208284031215611e94578081fd5b61103282611e5c565b60008060408385031215611eaf578081fd5b611eb883611e5c565b9150611ec660208401611e5c565b90509250929050565b600080600060608486031215611ee3578081fd5b611eec84611e5c565b9250611efa60208501611e5c565b9150604084013590509250925092565b60008060008060808587031215611f1f578081fd5b611f2885611e5c565b9350611f3660208601611e5c565b925060408501359150606085013567ffffffffffffffff811115611f58578182fd5b8501601f81018713611f68578182fd5b611f7787823560208401611dec565b91505092959194509250565b60008060408385031215611f95578182fd5b611f9e83611e5c565b9150611ec660208401611e73565b60008060408385031215611fbe578182fd5b611fc783611e5c565b946020939093013593505050565b600060208284031215611fe6578081fd5b61103282611e73565b600060208284031215612000578081fd5b8135611032816129e8565b60006020828403121561201c578081fd5b8151611032816129e8565b600060208284031215612038578081fd5b813567ffffffffffffffff81111561204e578182fd5b8201601f8101841361205e578182fd5b6113bf84823560208401611dec565b60006020828403121561207e578081fd5b5035919050565b6000815180845261209d816020860160208601612910565b601f01601f19169290920160200192915050565b600083516120c3818460208801612910565b8351908301906120d7818360208801612910565b01949350505050565b90565b6001600160a01b0391909116815260200190565b6001600160a01b038581168252841660208201526040810183905260806060820181905260009061212a90830184612085565b9695505050505050565b6020808252825182820181905260009190848201906040850190845b8181101561216c57835183529284019291840191600101612150565b50909695505050505050565b901515815260200190565b6000602082526110326020830184612085565b6020808252602b908201527f4552433732315061757361626c653a20746f6b656e207472616e73666572207760408201526a1a1a5b19481c185d5cd95960aa1b606082015260800190565b60208082526014908201527314185d5cd8589b194e881b9bdd081c185d5cd95960621b604082015260600190565b6020808252600f908201526e496e76616c6964206164647265737360881b604082015260600190565b6020808252600e908201526d22bc31b2b2b23990373ab6b132b960911b604082015260600190565b6020808252602b908201527f455243373231456e756d657261626c653a206f776e657220696e646578206f7560408201526a74206f6620626f756e647360a81b606082015260800190565b60208082526032908201527f4552433732313a207472616e7366657220746f206e6f6e20455243373231526560408201527131b2b4bb32b91034b6b83632b6b2b73a32b960711b606082015260800190565b602080825260149082015273135a5b9d0e881bdd995c8813585e081b1a5b5a5d60621b604082015260600190565b60208082526026908201527f4f776e61626c653a206e6577206f776e657220697320746865207a65726f206160408201526564647265737360d01b606082015260800190565b6020808252601c908201527f4552433732313a20746f6b656e20616c7265616479206d696e74656400000000604082015260600190565b6020808252600f908201526e457863656564732062616c616e636560881b604082015260600190565b60208082526024908201527f4552433732313a207472616e7366657220746f20746865207a65726f206164646040820152637265737360e01b606082015260800190565b60208082526019908201527f4552433732313a20617070726f766520746f2063616c6c657200000000000000604082015260600190565b6020808252602c908201527f4552433732313a206f70657261746f7220717565727920666f72206e6f6e657860408201526b34b9ba32b73a103a37b5b2b760a11b606082015260800190565b60208082526010908201526f14185d5cd8589b194e881c185d5cd95960821b604082015260600190565b60208082526038908201527f4552433732313a20617070726f76652063616c6c6572206973206e6f74206f7760408201527f6e6572206e6f7220617070726f76656420666f7220616c6c0000000000000000606082015260800190565b6020808252602a908201527f4552433732313a2062616c616e636520717565727920666f7220746865207a65604082015269726f206164647265737360b01b606082015260800190565b60208082526029908201527f4552433732313a206f776e657220717565727920666f72206e6f6e657869737460408201526832b73a103a37b5b2b760b91b606082015260800190565b6020808252818101527f4552433732313a206d696e7420746f20746865207a65726f2061646472657373604082015260600190565b60208082526008908201526714d85b1948195b9960c21b604082015260600190565b6020808252602c908201527f4552433732313a20617070726f76656420717565727920666f72206e6f6e657860408201526b34b9ba32b73a103a37b5b2b760a11b606082015260800190565b6020808252818101527f4f776e61626c653a2063616c6c6572206973206e6f7420746865206f776e6572604082015260600190565b60208082526029908201527f4552433732313a207472616e73666572206f6620746f6b656e2074686174206960408201526839903737ba1037bbb760b91b606082015260800190565b6020808252602f908201527f4552433732314d657461646174613a2055524920717565727920666f72206e6f60408201526e3732bc34b9ba32b73a103a37b5b2b760891b606082015260800190565b60208082526011908201527056616c75652062656c6f7720707269636560781b604082015260600190565b60208082526021908201527f4552433732313a20617070726f76616c20746f2063757272656e74206f776e656040820152603960f91b606082015260800190565b60208082526010908201526f2a3930b739b332b9103330b4b632b21760811b604082015260600190565b60208082526031908201527f4552433732313a207472616e736665722063616c6c6572206973206e6f74206f6040820152701ddb995c881b9bdc88185c1c1c9bdd9959607a1b606082015260800190565b6020808252602c908201527f455243373231456e756d657261626c653a20676c6f62616c20696e646578206f60408201526b7574206f6620626f756e647360a01b606082015260800190565b60208082526030908201527f4552433732314275726e61626c653a2063616c6c6572206973206e6f74206f7760408201526f1b995c881b9bdc88185c1c1c9bdd995960821b606082015260800190565b90815260200190565b600082198211156128c1576128c16129a6565b500190565b6000826128d5576128d56129bc565b500490565b60008160001904831182151516156128f4576128f46129a6565b500290565b60008282101561290b5761290b6129a6565b500390565b60005b8381101561292b578181015183820152602001612913565b83811115610ab75750506000910152565b60028104600182168061295057607f821691505b6020821081141561297157634e487b7160e01b600052602260045260246000fd5b50919050565b600060001982141561298b5761298b6129a6565b5060010190565b6000826129a1576129a16129bc565b500690565b634e487b7160e01b600052601160045260246000fd5b634e487b7160e01b600052601260045260246000fd5b634e487b7160e01b600052604160045260246000fd5b6001600160e01b0319811681146106d057600080fdfea2646970667358221220959de9359d7a2de4792cb56aa9d708ea9414085b259181c55e186cf5fae2ef6764736f6c63430008000033",
  "immutableReferences": {},
  "source": "// SPDX-License-Identifier: MIT\r\n\r\n\r\npragma solidity ^0.8.0;\r\n\r\nimport \"@openzeppelin/contracts/token/ERC721/ERC721.sol\";\r\nimport \"@openzeppelin/contracts/token/ERC721/extensions/ERC721Enumerable.sol\";\r\nimport \"@openzeppelin/contracts/token/ERC721/extensions/ERC721Burnable.sol\";\r\nimport \"@openzeppelin/contracts/access/Ownable.sol\";\r\nimport \"@openzeppelin/contracts/utils/math/SafeMath.sol\";\r\nimport \"@openzeppelin/contracts/utils/Counters.sol\";\r\nimport \"@openzeppelin/contracts/token/ERC721/extensions/ERC721Pausable.sol\";\r\n\r\ncontract AircoinsMetaverse is ERC721Enumerable, Ownable, ERC721Burnable, ERC721Pausable {\r\n    using SafeMath for uint256;\r\n    using Counters for Counters.Counter;\r\n\r\n    Counters.Counter private _tokenIdTracker;\r\n\r\n    uint256 public MAX_ELEMENTS = 1200;\r\n    uint256 public constant PRICE = 1 * 10**17; // 0.1 ETH\r\n    uint256 public constant MAX_BY_MINT = 10;\r\n    uint256 public constant MAX_PER_ADDRESS = 10;\r\n    uint256 public constant reveal_timestamp = 1634954400000; // Sat Oct 22nd 2021 10 PM EST\r\n    address public devAddress; // account\r\n    string public baseTokenURI; // IPFS\r\n\r\n    event CreateAircoinsMetaverse(uint256 indexed id);\r\n\r\n    constructor(string memory baseURI) ERC721(\"Aircoins Metaverse\", \"AIRx\") {\r\n        devAddress = msg.sender;\r\n\r\n        setBaseURI(baseURI);\r\n        pause(true);\r\n    }\r\n\r\n    modifier saleIsOpen {\r\n        require(_totalSupply() <= MAX_ELEMENTS, \"Sale end\");\r\n        if (_msgSender() != owner()) {\r\n            require(!paused(), \"Pausable: paused\");\r\n        }\r\n        _;\r\n    }\r\n\r\n    modifier saleIsReveal {\r\n        require(block.timestamp >= reveal_timestamp, \"Not revealed yet\");\r\n        _;\r\n    }\r\n\r\n    function _totalSupply() internal view returns (uint) {\r\n        return _tokenIdTracker.current();\r\n    }\r\n\r\n    function totalMint() public view returns (uint256) {\r\n        return _totalSupply();\r\n    }\r\n\r\n    // multiple mint (saleIsReveal)\r\n    function mint(address _to, uint256 _count) public payable saleIsOpen {\r\n        uint256 total = _totalSupply();\r\n        require(total <= MAX_ELEMENTS, \"Sale end\");\r\n        require(total + _count <= MAX_ELEMENTS, \"Mint: over Max limit\");\r\n        require(_count <= MAX_BY_MINT, \"Exceeds number\");\r\n        require(balanceOf(_to) + _count <= MAX_PER_ADDRESS, \"Exceeds balance\");        \r\n        require(msg.value >= price(_count), \"Value below price\");\r\n\r\n        for (uint256 i = 0; i < _count; i++) {\r\n            _mintAnElement(_to);\r\n        }\r\n    }\r\n\r\n    // this is for presale\r\n    function presaleMint(address _to) public payable onlyOwner {\r\n        _mintAnElement(_to);\r\n    }\r\n\r\n    // mint one Token to sender\r\n    function _mintAnElement(address _to) private {\r\n        uint id = _totalSupply();\r\n        _tokenIdTracker.increment();\r\n        _safeMint(_to, id);\r\n        \r\n        emit CreateAircoinsMetaverse(id);\r\n    }\r\n\r\n    // the total price of token amounts which the sender will mint\r\n    function price(uint256 _count) public pure returns (uint256) {\r\n        return PRICE.mul(_count);\r\n    }\r\n\r\n    function _baseURI() internal view virtual override returns (string memory) {\r\n        return baseTokenURI;\r\n    }\r\n\r\n    // set BaseURI\r\n    function setBaseURI(string memory baseURI) public onlyOwner {\r\n        baseTokenURI = baseURI;\r\n    }\r\n\r\n    // set MAX_ELEMENTS\r\n    function setMaxElements(uint256 _count) public onlyOwner {\r\n        MAX_ELEMENTS = _count;\r\n    }\r\n\r\n    // get wallet infos\r\n    function walletOfOwner(address _owner) external view returns (uint256[] memory) {\r\n        uint256 tokenCount = balanceOf(_owner);\r\n\r\n        uint256[] memory tokensId = new uint256[](tokenCount);\r\n        for (uint256 i = 0; i < tokenCount; i++) {\r\n            tokensId[i] = tokenOfOwnerByIndex(_owner, i);\r\n        }\r\n\r\n        return tokensId;\r\n    }\r\n\r\n    // set the state of market\r\n    function pause(bool val) public onlyOwner {\r\n        if (val == true) {\r\n            _pause();\r\n            return;\r\n        }\r\n        _unpause();\r\n    }\r\n\r\n    // withdraw all coins\r\n    function withdrawAll() public payable onlyOwner {\r\n        uint256 balance = address(this).balance;\r\n        require(balance > 0);\r\n        _widthdraw(devAddress, balance);\r\n    }\r\n\r\n    function _widthdraw(address _address, uint256 _amount) private {\r\n        (bool success, ) = _address.call{value: _amount}(\"\");\r\n        require(success, \"Transfer failed.\");\r\n    }\r\n\r\n    // override function\r\n    function _beforeTokenTransfer(\r\n        address from,\r\n        address to,\r\n        uint256 tokenId\r\n    ) internal virtual override(ERC721, ERC721Enumerable, ERC721Pausable) {\r\n        super._beforeTokenTransfer(from, to, tokenId);\r\n    }\r\n\r\n    function supportsInterface(bytes4 interfaceId) public view virtual override(ERC721, ERC721Enumerable) returns (bool) {\r\n        return super.supportsInterface(interfaceId);\r\n    }\r\n\r\n    // set dev address\r\n    function setDevAddr(address new_dev_addr) public onlyOwner{\r\n        require(new_dev_addr != address(0), 'Invalid address');\r\n        devAddress = new_dev_addr;\r\n    }\r\n}",
  "sourcePath": "F:\\workBlockchain\\project\\2021-AIRxNFT\\contract\\contracts\\AircoinsMetaverse.sol",
  "compiler": {
    "name": "solc",
    "version": "0.8.0+commit.c7dfd78e.Emscripten.clang"
  },
  "schemaVersion": "3.4.3",
  "updatedAt": "2021-10-22T10:09:41.914Z",
  "networkType": "ethereum",
  "devdoc": {
    "kind": "dev",
    "methods": {
      "approve(address,uint256)": {
        "details": "See {IERC721-approve}."
      },
      "balanceOf(address)": {
        "details": "See {IERC721-balanceOf}."
      },
      "burn(uint256)": {
        "details": "Burns `tokenId`. See {ERC721-_burn}. Requirements: - The caller must own `tokenId` or be an approved operator."
      },
      "getApproved(uint256)": {
        "details": "See {IERC721-getApproved}."
      },
      "isApprovedForAll(address,address)": {
        "details": "See {IERC721-isApprovedForAll}."
      },
      "name()": {
        "details": "See {IERC721Metadata-name}."
      },
      "owner()": {
        "details": "Returns the address of the current owner."
      },
      "ownerOf(uint256)": {
        "details": "See {IERC721-ownerOf}."
      },
      "paused()": {
        "details": "Returns true if the contract is paused, and false otherwise."
      },
      "renounceOwnership()": {
        "details": "Leaves the contract without owner. It will not be possible to call `onlyOwner` functions anymore. Can only be called by the current owner. NOTE: Renouncing ownership will leave the contract without an owner, thereby removing any functionality that is only available to the owner."
      },
      "safeTransferFrom(address,address,uint256)": {
        "details": "See {IERC721-safeTransferFrom}."
      },
      "safeTransferFrom(address,address,uint256,bytes)": {
        "details": "See {IERC721-safeTransferFrom}."
      },
      "setApprovalForAll(address,bool)": {
        "details": "See {IERC721-setApprovalForAll}."
      },
      "symbol()": {
        "details": "See {IERC721Metadata-symbol}."
      },
      "tokenByIndex(uint256)": {
        "details": "See {IERC721Enumerable-tokenByIndex}."
      },
      "tokenOfOwnerByIndex(address,uint256)": {
        "details": "See {IERC721Enumerable-tokenOfOwnerByIndex}."
      },
      "tokenURI(uint256)": {
        "details": "See {IERC721Metadata-tokenURI}."
      },
      "totalSupply()": {
        "details": "See {IERC721Enumerable-totalSupply}."
      },
      "transferFrom(address,address,uint256)": {
        "details": "See {IERC721-transferFrom}."
      },
      "transferOwnership(address)": {
        "details": "Transfers ownership of the contract to a new account (`newOwner`). Can only be called by the current owner."
      }
    },
    "version": 1
  },
  "userdoc": {
    "kind": "user",
    "methods": {},
    "version": 1
  }
}